:1000000012C0189518951895189518951895189563
:1000100052C0189518951895189518951895189513
:100020001895189518958FE58DBFC0E4E8E34E2E1E
:1000300084E08EBFD4E0F4E05F2EEEEFF3E0A0E6C4
:10004000B0E0A89584B7082E877F84BF88E1992700
:1000500081BD91BD88278D933197E9F76624BC9ABD
:10006000C49A789484B7877F84BF8FE181BD87E08D
:1000700081BD81B5886081BD80E08FBD81E08EBD8E
:1000800089B7846089BF8EB5887F8EBD8D98A09812
:100090008E9AB99AE0E0F0E0A1E1B1E09EE170D281
:1000A000E6ECF5E020D2A1E1B1E02BD224D2969A81
:1000B0003DD0A895FDCF0F921F922F923F924F9265
:1000C0005F927F92AF92BF920F931F932F933F93B4
:1000D0004F935F936F937F938F939F93AF93BF9350
:1000E000CF93DF93EF93FF938FB78F9382E29CE0E0
:1000F0009DBD8CBD8F918FBFFF91EF91DF91CF910F
:10010000BF91AF919F918F917F916F915F914F912F
:100110003F912F911F910F91BF90AF907F905F9073
:100120004F903F902F901F900F901895A9EEB0E040
:1001300088278C93AAECB0E088278C930027A0E353
:10014000B0E08C9185FB0EF401E041E0041709F06A
:1001500098C180E090E0A4E6B0E08D939C93A4E683
:10016000B0E091D1EF93FF93E6E0F0E09AD1FF91F8
:10017000EF910027A0E3B0E08C9185FB0EF401E045
:1001800041E0041709F0EBCFA4E6B0E00D911C911B
:10019000003253E0150780E010F009F081E08F9302
:1001A000A4E6B0E00D911C91043155E0150781E003
:1001B00008F080E09F918923882309F462C1969812
:1001C000AAECB0E088278C9381E090E0A0E6B0E054
:1001D0008D939C930027A0E3B0E08C9185FB0EF4F7
:1001E00001E041E0041709F02EC080E090E0A4E6B1
:1001F000B0E08D939C93A4E6B0E045D1EF93FF93DC
:10020000E6E0F0E04ED1FF91EF910027A0E3B0E0EF
:100210008C9185FB0EF401E040E0041709F0EBCF70
:10022000A4E6B0E08D919C91A0E6B0E0AD90BC90CA
:10023000A4E6B0E0AA0CBB1CAA0DBB1D8D939C9339
:10024000A0E6B0E020D1A895A0E6B0E00D911C9109
:10025000083150E0150710F009F001C0BBCF81E074
:1002600090E0A0E6B0E08D939C93A0E6B0E00D9105
:100270001C91083150E0150710F009F08EC0A0E67F
:10028000B0E0AD90BC90A4E6B0E0AA0CBB1CAA0DF7
:10029000BB1D0D911C91043150E0150780E010F05A
:1002A00009F081E08F93A0E6B0E0AD90BC90A4E6A9
:1002B000B0E0AA0CBB1CAA0DBB1D0D911C910C3308
:1002C00050E0150781E008F080E09F9189238823A2
:1002D00009F415C080E090E0A0E6B0E0AD90BC90DD
:1002E000A4E6B0E0AA0CBB1CAA0DBB1D8D939C9389
:1002F000AAECB0E0CFD0ECECF5E018D149C0A0E614
:10030000B0E0AD90BC90A4E6B0E0AA0CBB1CAA0D76
:10031000BB1D0D911C91003550E0150780E010F0D9
:1003200009F081E08F93A0E6B0E0AD90BC90A4E628
:10033000B0E0AA0CBB1CAA0DBB1D0D911C91003A8C
:1003400050E0150781E008F080E09F918923882321
:1003500009F415C081E090E0A0E6B0E0AD90BC905B
:10036000A4E6B0E0AA0CBB1CAA0DBB1D8D939C9308
:10037000AAECB0E08FD0EEECF5E0D8D009C0AAEC42
:10038000B0E088278C93A9EEB0E088278C9308957D
:10039000A0E6B0E078D008F468CFAAECB0E0FAD0DC
:1003A000EA2FFB2F3597F0400FEFA9EEB0E0CFD04A
:1003B000EAECF0E004E1AAECB0E0C9D0E0EDF5E051
:1003C00092D0A9EEB0E09DD0E6EDF5E08CD0A1E1B1
:1003D000B1E097D090D0EAECF0E0A1E1B1E0E2D05A
:1003E00009F00FC0A9EEB0E0EEEDF5E0D9D009F0CC
:1003F00000C0A9EEB0E0E4EEF5E0D2D009F000C014
:1004000004C0A9EEB0E088278C930027A3E3B0E0F6
:100410008C9180FB0EF401E041E0041709F031C03B
:10042000EAECF0E0A1E1B1E08DD0E0E0F0E0AAEC90
:10043000B0E07BE79AD08AE090E069D0EAEEF5E0A0
:1004400052D059D0E0EFF5E04ED0AAECB0E059D050
:10045000E4EFF5E048D0A9EEB0E053D04CD0A89539
:100460008AE090E054D00027A3E3B0E08C9180FBB9
:100470000EF401E040E0041709F0F1CF84E690E0CB
:1004800046D0969A0895ED91FC91EF5FFF4FFC9353
:10049000EE9308958F938D918823E9F711978F91AB
:1004A00008953197F1F70895689462F80895E894F3
:1004B00062F808958F939F9383E690E00197F1F798
:1004C0009F918F91089580952AE090E0089410F410
:1004D000C49802C0C49A0000EDDFECDF96958795C2
:1004E0002A95A9F70895C895802D882319F0EBDF88
:1004F0003196F9CF08958DE0E6DF8AE0E4CFA0E2FF
:10050000B4E08D91882311F0DEDFFBCF0895EF93E7
:10051000FF93EE27E82BE92B31F0E0EDF7E0319780
:10052000F1F70197D1F7FF91EF91089504D00D9263
:100530000020E1F70895C895319600200895882796
:100540008D93089581918D938823E1F7089581918A
:100550008D930A9519F08823D1F70895F0CFE1998A
:10056000FECFEEBBFFBB31960895F9DF8D917B374F
:1005700029F48DBBE29AE19A8823B9F77727089589
:10058000EEDFE09A8DB38D93882319F09A95C1F729
:100590009D9308958FEF83959D919923E1F7089599
:1005A000689401C0E894AF93BF938D9116F0919138
:1005B00002C0C1DF902D891718F011F48823A9F724
:1005C000BF91AF91089548696969690030003100B1
:1005D000446174613D0020202049443D00003030DA
:1005E00030310000303031300000536176656400F6
:0C05F00049443D002020446174613D003E
:00000001FF
