:1000000012C0189518951895189518951895189563
:1000100064C0189518951895189518951895189501
:100020001895189518958FE58DBFC0E4E8E34E2E1E
:1000300084E08EBFD4E0F4E05F2EEEEFF3E0A0E6C4
:10004000B0E0A89584B7082E877F84BF88E1992700
:1000500081BD91BD88278D933197E9F76624BC9ABD
:10006000C49A789484B7877F84BF8FE181BD87E08D
:1000700081BD81B5886081BD86E886B980E487B995
:1000800080E08FBD83E08EBD89B7846089BF83E047
:100090008EBD8D98A0988E9AB99AE0E0F0E0A5E127
:1000A000B1E09EE1A0D2ECE2F6E050D2A5E1B1E0F1
:1000B0005BD254D29698C19859D0A895A3E1B1E0EB
:1000C0000D911C91003050E0150710F009F001C0AF
:1000D00002C0C19A01C0C198EFCF0F921F922F9218
:1000E0003F924F925F927F92AF92BF920F931F9376
:1000F0002F933F934F935F936F937F938F939F9330
:10010000AF93BF93CF93DF93EF93FF938FB78F930B
:1001100082E29CE09DBD8CBDA3E1B1E00D911C91FC
:10012000003050E0150710F009F001C003C0A3E152
:10013000B1E0DCD18F918FBFFF91EF91DF91CF9133
:10014000BF91AF919F918F917F916F915F914F91EF
:100150003F912F911F910F91BF90AF907F905F9033
:100160004F903F902F901F900F901895ABEEB0E0FE
:1001700088278C93ACECB0E088278C930027A0E311
:10018000B0E08C9185FB0EF401E041E0041709F02A
:10019000A4C180E090E0A6E6B0E08D939C93A6E633
:1001A000B0E09DD1EF93FF93E6E0F0E0ADD1FF9199
:1001B000EF910027A0E3B0E08C9185FB0EF401E005
:1001C00041E0041709F0EBCFA6E6B0E00D911C91D9
:1001D000003253E0150780E010F009F081E08F93C2
:1001E000A6E6B0E00D911C91043155E0150781E0C1
:1001F00008F080E09F918923882309F46EC1969AC4
:10020000ACECB0E088278C9381E090E0A0E6B0E011
:100210008D939C930027A0E3B0E08C9185FB0EF4B6
:1002200001E041E0041709F02EC080E090E0A6E66E
:10023000B0E08D939C93A6E6B0E051D1EF93FF938D
:10024000E6E0F0E061D1FF91EF910027A0E3B0E09C
:100250008C9185FB0EF401E040E0041709F0EBCF30
:10026000A6E6B0E08D919C91A0E6B0E0AD90BC9088
:10027000A6E6B0E0AA0CBB1CAA0DBB1D8D939C93F7
:10028000A0E6B0E02CD1A895A0E6B0E00D911C91BD
:10029000083150E0150710F009F001C0BBCF81E034
:1002A00090E0A0E6B0E08D939C93A0E6B0E00D91C5
:1002B0001C91083150E0150710F009F08EC0A0E63F
:1002C000B0E0AD90BC90A6E6B0E0AA0CBB1CAA0DB5
:1002D000BB1D0D911C91043150E0150780E010F01A
:1002E00009F081E08F93A0E6B0E0AD90BC90A6E667
:1002F000B0E0AA0CBB1CAA0DBB1D0D911C910C33C8
:1003000050E0150781E008F080E09F918923882361
:1003100009F415C080E090E0A0E6B0E0AD90BC909C
:10032000A6E6B0E0AA0CBB1CAA0DBB1D8D939C9346
:10033000ACECB0E0E2D0E2E3F6E02BD149C0A0E6BD
:10034000B0E0AD90BC90A6E6B0E0AA0CBB1CAA0D34
:10035000BB1D0D911C91003550E0150780E010F099
:1003600009F081E08F93A0E6B0E0AD90BC90A6E6E6
:10037000B0E0AA0CBB1CAA0DBB1D0D911C91003A4C
:1003800050E0150781E008F080E09F9189238823E1
:1003900009F415C081E090E0A0E6B0E0AD90BC901B
:1003A000A6E6B0E0AA0CBB1CAA0DBB1D8D939C93C6
:1003B000ACECB0E0A2D0E4E3F6E0EBD009C0ACECEA
:1003C000B0E088278C93ABEEB0E088278C9308953B
:1003D000A0E6B0E084D008F468CFACECB0E00DD17A
:1003E000EA2FFB2F3597F0400FEFABEEB0E0E2D0F5
:1003F000ECECF0E004E1ACECB0E0DCD0E6E3F6E0FD
:10040000A5D0ABEEB0E0B0D0ECE3F6E09FD0A5E134
:10041000B1E0AAD0A3D0ECECF0E0A5E1B1E0F5D0DA
:1004200009F01BC0ABEEB0E0E4E4F6E0ECD009F07C
:1004300006C088E691E0A3E1B1E08D939C93ABEE1A
:10044000B0E0EAE4F6E0DFD009F006C080E090E03A
:10045000A3E1B1E08D939C9304C0ABEEB0E088279C
:100460008C930027A3E3B0E08C9180FB0EF401E0B5
:1004700041E0041709F031C0ECECF0E0A5E1B1E097
:1004800094D0E0E0F0E0ACECB0E07BE7A1D08AE013
:1004900090E070D0E0E5F6E059D060D0E6E5F6E017
:1004A00055D0ACECB0E060D0EAE5F6E04FD0ABEE72
:1004B000B0E05AD053D0A8958AE090E05BD00027F6
:1004C000A3E3B0E08C9180FB0EF401E040E0041760
:1004D00009F0F1CF84E690E04DD096980895ED9123
:1004E000FC91EF5FFF4FFC93EE930895ED91FC912B
:1004F000E150F040FC93EE9308958F938D91882303
:10050000E9F711978F9108953197F1F7089568945D
:1005100062F80895E89462F808958F939F9383E6B4
:1005200090E00197F1F79F918F91089580952AE0CF
:1005300090E0089410F4C49802C0C49A0000EDDF63
:10054000ECDF969587952A95A9F70895C895802D93
:10055000882319F0EBDF3196F9CF08958DE0E6DFBF
:100560008AE0E4CFA0E2B4E08D91882311F0DEDFD1
:10057000FBCF0895EF93FF93EE27E82BE92B31F0A3
:10058000E0EDF7E03197F1F70197D1F7FF91EF91A7
:10059000089504D00D920020E1F70895C895319692
:1005A0000020089588278D93089581918D93882345
:1005B000E1F7089581918D930A9519F08823D1F779
:1005C0000895F0CFE199FECFEEBBFFBB31960895C1
:1005D000F9DF8D917B3729F48DBBE29AE19A88236C
:1005E000B9F777270895EEDFE09A8DB38D938823CE
:1005F00019F09A95C1F79D9308958FEF83959D917A
:100600009923E1F70895689401C0E894AF93BF93EC
:100610008D9116F0919102C0C1DF902D891718F0CD
:1006200011F48823A9F7BF91AF91089548696969CA
:10063000690030003100446174613D002020204990
:10064000443D0000303030310000303031300000A7
:1006500053617665640049443D0020204461746123
:020660003D005B
:00000001FF
