:1000000012C0189518951895189518951895189563
:1000100091C01895189518951895189518951895D4
:100020001895189518958FE58DBFC0E4E8E34E2E1E
:1000300084E08EBFD4E0F4E05F2EEEEFF3E0A0E6C4
:10004000B0E0A89584B7082E877F84BF88E1992700
:1000500081BD91BD88278D933197E9F76624BC9ABD
:10006000C49AA19AA99A789484B7877F84BF8FE1B4
:1000700081BD87E081BD81B5886081BD86E886B994
:1000800080E487B980E08FBD83E08EBD89B784604E
:1000900089BF83E08EBD8D98A0988E9A8F9AB89A6A
:1000A000B99AC09AC19AE0E0F0E0A5E1B1E09EE122
:1000B000E0D2E8EBF6E077D2A5E1B1E082D27BD2E4
:1000C000969897980027A3E3B0E08C9180FB0EF4FC
:1000D00001E041E0041709F01AC0C19884EF91E0F3
:1000E0008FD2A89584EF91E08BD2A89584EF91E010
:1000F00087D2A89584EF91E083D2A89584EF91E010
:100100007FD2A89584EF91E07BD2A895C19AA8955B
:10011000D9CF59D0A895A3E1B1E00D911C91003041
:1001200050E0150710F009F001C002C0979A01C015
:100130009798EFCF0F921F922F923F924F925F921C
:100140007F92AF92BF920F931F932F933F934F9342
:100150005F936F937F938F939F93AF93BF93CF934F
:10016000DF93EF93FF938FB78F9382E29CE09DBD67
:100170008CBDA3E1B1E00D911C91003050E015075A
:1001800010F009F001C003C0A3E1B1E0DCD18F9110
:100190008FBFFF91EF91DF91CF91BF91AF919F9171
:1001A0008F917F916F915F914F913F912F911F910F
:1001B0000F91BF90AF907F905F904F903F902F90A6
:1001C0001F900F901895ABEEB0E088278C93ACECA5
:1001D000B0E088278C930027A0E3B0E08C9185FBEA
:1001E0000EF401E041E0041709F0A4C180E090E0C2
:1001F000A6E6B0E08D939C93A6E6B0E09DD1EF9388
:10020000FF93E6E0F0E0ADD1FF91EF910027A0E38E
:10021000B0E08C9185FB0EF401E041E0041709F099
:10022000EBCFA6E6B0E00D911C91003253E015072C
:1002300080E010F009F081E08F93A6E6B0E00D9128
:100240001C91043155E0150781E008F080E09F9192
:100250008923882309F46EC1969AACECB0E0882714
:100260008C9381E090E0A0E6B0E08D939C93002712
:10027000A0E3B0E08C9185FB0EF401E041E00417AF
:1002800009F02EC080E090E0A6E6B0E08D939C934C
:10029000A6E6B0E051D1EF93FF93E6E0F0E061D144
:1002A000FF91EF910027A0E3B0E08C9185FB0EF465
:1002B00001E040E0041709F0EBCFA6E6B0E08D9135
:1002C0009C91A0E6B0E0AD90BC90A6E6B0E0AA0C90
:1002D000BB1CAA0DBB1D8D939C93A0E6B0E02CD156
:1002E000A895A0E6B0E00D911C91083150E01507EB
:1002F00010F009F001C0BBCF81E090E0A0E6B0E0D3
:100300008D939C93A0E6B0E00D911C91083150E0D4
:10031000150710F009F08EC0A0E6B0E0AD90BC90DB
:10032000A6E6B0E0AA0CBB1CAA0DBB1D0D911C914A
:10033000043150E0150780E010F009F081E08F9360
:10034000A0E6B0E0AD90BC90A6E6B0E0AA0CBB1C65
:10035000AA0DBB1D0D911C910C3350E0150781E0D7
:1003600008F080E09F918923882309F415C080E07C
:1003700090E0A0E6B0E0AD90BC90A6E6B0E0AA0C9C
:10038000BB1CAA0DBB1D8D939C93ACECB0E0E2D0DE
:10039000EEEBF6E044D149C0A0E6B0E0AD90BC90F1
:1003A000A6E6B0E0AA0CBB1CAA0DBB1D0D911C91CA
:1003B000003550E0150780E010F009F081E08F93E0
:1003C000A0E6B0E0AD90BC90A6E6B0E0AA0CBB1CE5
:1003D000AA0DBB1D0D911C91003A50E0150781E05C
:1003E00008F080E09F918923882309F415C081E0FB
:1003F00090E0A0E6B0E0AD90BC90A6E6B0E0AA0C1C
:10040000BB1CAA0DBB1D8D939C93ACECB0E0A2D09D
:10041000E0ECF6E004D109C0ACECB0E088278C93A6
:10042000ABEEB0E088278C930895A0E6B0E084D0CE
:1004300008F468CFACECB0E026D1EA2FFB2F35975B
:10044000F0400FEFABEEB0E0FBD0ECECF0E004E1FD
:10045000ACECB0E0F5D0E2ECF6E0A5D0ABEEB0E06D
:10046000B0D0E8ECF6E09FD0A5E1B1E0AAD0A3D0EF
:10047000ECECF0E0A5E1B1E00ED109F01BC0ABEE71
:10048000B0E0E0EDF6E005D109F006C088E691E0C5
:10049000A3E1B1E08D939C93ABEEB0E0E6EDF6E026
:1004A000F8D009F006C080E090E0A3E1B1E08D93C0
:1004B0009C9304C0ABEEB0E088278C930027A3E3A5
:1004C000B0E08C9180FB0EF401E041E0041709F0EC
:1004D00031C0ECECF0E0A5E1B1E0ADD0E0E0F0E05F
:1004E000ACECB0E07BE7BAD08AE090E089D0ECEDEC
:1004F000F6E059D060D0E2EEF6E055D0ACECB0E0DA
:1005000060D0E6EEF6E04FD0ABEEB0E05AD053D07C
:10051000A8958AE090E074D00027A3E3B0E08C9126
:1005200080FB0EF401E040E0041709F0F1CF84E60F
:1005300090E066D096980895ED91FC91EF5FFF4FA3
:10054000FC93EE930895ED91FC91E150F040FC9303
:10055000EE9308958F938D918823E9F711978F91EA
:1005600008953197F1F70895689462F80895E89432
:1005700062F808958F939F9383E690E00197F1F7D7
:100580009F918F91089580952AE090E0089410F44F
:10059000C49802C0C49A0000EDDFECDF9695879501
:1005A0002A95A9F70895C895802D882319F0EBDFC7
:1005B0003196F9CF08958DE0E6DF8AE0E4CFA0E23E
:1005C000B4E08D91882311F0DEDFFBCF08958F9387
:1005D0009F9383E690E00197F1F79F918F910895A3
:1005E00080952AE090E0089410F4A99802C0A99A96
:1005F0000000EDDFECDF969587952A95A9F7089521
:10060000EF93FF93EE27E82BE92B31F0E0EDF7E0D5
:100610003197F1F70197D1F7FF91EF91089504D049
:100620000D920020E1F70895C895319600200895B5
:1006300088278D93089581918D938823E1F70895FC
:1006400081918D930A9519F08823D1F70895F0CF01
:10065000E199FECFEEBBFFBB31960895F9DF8D9196
:100660007B3729F48DBBE29AE19A8823B9F7772783
:100670000895EEDFE09A8DB38D93882319F09A9553
:10068000C1F79D9308958FEF83959D919923E1F78D
:100690000895689401C0E894AF93BF938D9116F0CC
:1006A000919102C0C1DF902D891718F011F48823B1
:1006B000A9F7BF91AF910895486969696900300051
:1006C0003100446174613D0020202049443D000018
:1006D0003030303100003030313000005361766509
:0E06E000640049443D002020446174613D00E7
:00000001FF
