:1000000012C0189518951895189518951895189563
:1000100018C118951895189518951895189518954C
:100020001895189518958FE58DBFC0E4E8E34E2E1E
:1000300084E08EBFD4E0F4E05F2EEEEFF3E0A0E6C4
:10004000B0E0A89584B7082E877F84BF88E1992700
:1000500081BD91BD88278D933197E9F76624BC9ABD
:10006000C49AA19AA99A789484B7877F84BF8FE1B4
:1000700081BD87E081BD81B5886081BD86E886B994
:1000800080E487B980E08FBD83E08EBD89B784604E
:1000900089BF83E08EBD8D98A0988E9A8F9AB89A6A
:1000A000B99AC09AC19AE0E0F0E0A6E1B1E09EE121
:1000B00090D3E8E1F8E022D3A6E1B1E02DD326D336
:1000C0009698979807D1A895A3E1B1E00D911C915E
:1000D000003050E0150710F009F001C002C0979AF7
:1000E00001C097980027A2E3B0E08C9187FB0EF443
:1000F00001E041E0041781E009F080E08F930027E0
:10010000A5E1B1E08C9187FB0EF401E040E004171B
:1001100081E009F080E09F918923882309F44DC094
:100120008EE709D38FEF07D386E005D386E003D3AC
:1001300080E001D380E0FFD28EE1FDD28EEFFBD2D2
:1001400087EDF9D28FEEF7D28CE291E009D3A89532
:100150008EE7F1D28FEFEFD286E0EDD288E1EBD2DD
:1001600080E0E9D280E0E7D280E0E5D28EEFE3D212
:1001700083EEE1D28FEEDFD28CE291E0F1D2A8954E
:100180008EE7D9D28FEFD7D286E0D5D281E0D3D215
:1001900080E0D1D280E0CFD280E0CDD28EEFCBD242
:1001A0008AEFC9D28FEEC7D28CE291E0D9D2A8955E
:1001B000809115018068809315010027A2E3B0E0CB
:1001C0008C9187FB0EF401E040E0041781E009F018
:1001D00080E08F930027A5E1B1E08C9187FB0EF4BE
:1001E00001E041E0041781E009F080E09F9189235C
:1001F000882309F421C080E991E0B2D2A8958EE766
:100200009AD28FEF98D286E096D28EE094D280E098
:1002100092D280E090D280E08ED28EEF8CD28DEEA2
:100220008AD28FEE88D288EC90E09AD2A8958091FD
:1002300015018F778093150182B390E4892782BBE3
:1002400041CF0F921F922F923F924F925F927F92D7
:10025000AF92BF920F931F932F933F934F935F9350
:100260006F937F938F939F93AF93BF93CF93DF93BE
:10027000EF93FF938FB78F9382E29CE09DBD8CBD7F
:10028000A3E1B1E00D911C91003050E0150710F092
:1002900009F001C003C0A3E1B1E000D28F918FBF8C
:1002A000FF91EF91DF91CF91BF91AF919F918F918E
:1002B0007F916F915F914F913F912F911F910F917E
:1002C000BF90AF907F905F904F903F902F901F9086
:1002D0000F901895ABEEB0E088278C93ACECB0E0B3
:1002E00088278C930027A0E3B0E08C9185FB0EF467
:1002F00001E041E0041709F0C8C180E090E0A6E603
:10030000B0E08D939C93A6E6B0E0C1D1EF93FF934C
:10031000E6E0F0E0D1D1FF91EF910027A0E3B0E05B
:100320008C9185FB0EF401E041E0041709F0EBCF5E
:10033000A6E6B0E00D911C91003253E0150780E075
:1003400010F009F081E08F93A6E6B0E00D911C91CA
:10035000043155E0150781E008F080E09F91892382
:10036000882309F492C1969AACECB0E088278C936C
:1003700081E090E0A0E6B0E08D939C930027A0E39D
:10038000B0E08C9185FB0EF401E041E0041709F028
:100390002EC080E090E0A6E6B0E08D939C93A6E6A8
:1003A000B0E075D1EF93FF93E6E0F0E085D1FF91E7
:1003B000EF910027A0E3B0E08C9185FB0EF401E003
:1003C00040E0041709F0EBCFA6E6B0E08D919C91D8
:1003D000A0E6B0E0AD90BC90A6E6B0E0AA0CBB1CD5
:1003E000AA0DBB1D8D939C93A0E6B0E050D1A895BB
:1003F000A0E6B0E00D911C91083150E0150710F017
:1004000009F001C0BBCF81E090E0A0E6B0E08D93A1
:100410009C93A0E6B0E00D911C91083150E01507C7
:1004200010F009F08EC0A0E6B0E0AD90BC90A6E65A
:10043000B0E0AA0CBB1CAA0DBB1D0D911C91043190
:1004400050E0150780E010F009F081E08F93A0E6FE
:10045000B0E0AD90BC90A6E6B0E0AA0CBB1CAA0D23
:10046000BB1D0D911C910C3350E0150781E008F085
:1004700080E09F918923882309F415C080E090E0F3
:10048000A0E6B0E0AD90BC90A6E6B0E0AA0CBB1C24
:10049000AA0DBB1D8D939C93ACECB0E006D1EEE1B0
:1004A000F8E06DD149C0A0E6B0E0AD90BC90A6E602
:1004B000B0E0AA0CBB1CAA0DBB1D0D911C91003510
:1004C00050E0150780E010F009F081E08F93A0E67E
:1004D000B0E0AD90BC90A6E6B0E0AA0CBB1CAA0DA3
:1004E000BB1D0D911C91003A50E0150781E008F00A
:1004F00080E09F918923882309F415C081E090E072
:10050000A0E6B0E0AD90BC90A6E6B0E0AA0CBB1CA3
:10051000AA0DBB1D8D939C93ACECB0E0C6D0E0E27D
:10052000F8E02DD109C0ACECB0E088278C93ABEE9D
:10053000B0E088278C930895A0E6B0E0A8D008F436
:1005400068CFACECB0E04FD1EA2FFB2F3597F040ED
:100550000FEFABEEB0E024D1ECECF0E004E1ACEC5A
:10056000B0E01ED1E2E2F8E0C9D0ABEEB0E0D4D00A
:10057000E8E2F8E0C3D0A6E1B1E0CED0C7D0ECEC21
:10058000F0E0A6E1B1E037D109F03FC0ABEEB0E05A
:10059000E0E3F8E02ED109F006C088E691E0A3E19F
:1005A000B1E08D939C93ABEEB0E0E6E3F8E021D1AF
:1005B00009F006C080E090E0A3E1B1E08D939C9348
:1005C000ABEEB0E0E6E3F8E014D109F01DC08EE731
:1005D000B2D08FEFB0D086E0AED08EE0ACD080E06D
:1005E000AAD080E0A8D080E0A6D08EEFA4D08DEE77
:1005F000A2D08FEEA0D088EC90E0B2D0A8958091E8
:1006000015018F778093150104C0ABEEB0E0882709
:100610008C930027A3E3B0E08C9180FB0EF401E003
:1006200041E0041709F031C0ECECF0E0A6E1B1E0E4
:10063000B2D0E0E0F0E0ACECB0E07BE7BFD08AE025
:1006400090E08ED0ECE3F8E059D060D0E2E4F8E03E
:1006500055D0ACECB0E060D0E6E4F8E04FD0ABEEC3
:10066000B0E05AD053D0A8958AE090E079D0002726
:10067000A3E3B0E08C9180FB0EF401E040E00417AE
:1006800009F0F1CF84E690E06BD096980895ED9153
:10069000FC91EF5FFF4FFC93EE930895ED91FC9179
:1006A000E150F040FC93EE9308958F938D91882351
:1006B000E9F711978F9108953197F1F708956894AC
:1006C00062F80895E89462F808958F939F9383E603
:1006D00090E00197F1F79F918F91089580952AE01E
:1006E00090E0089410F4C49802C0C49A0000EDDFB2
:1006F000ECDF969587952A95A9F70895C895802DE2
:10070000882319F0EBDF3196F9CF08958DE0E6DF0D
:100710008AE0E4CFA0E2B4E08D91882311F0DEDF1F
:10072000FBCF08958F939F9383E690E00197F1F7B5
:100730009F918F91089580952AE090E0089410F49D
:10074000A99802C0A99A0000EDDFECDF9695879585
:100750002A95A9F708958D91EEDF3A95E1F708956E
:10076000EF93FF93EE27E82BE92B31F0E0EDF7E074
:100770003197F1F70197D1F7FF91EF91089504D0E8
:100780000D920020E1F70895C89531960020089554
:1007900088278D93089581918D938823E1F708959B
:1007A00081918D930A9519F08823D1F70895F0CFA0
:1007B000E199FECFEEBBFFBB31960895F9DF8D9135
:1007C0007B3729F48DBBE29AE19A8823B9F7772722
:1007D0000895EEDFE09A8DB38D93882319F09A95F2
:1007E000C1F79D9308958FEF83959D919923E1F72C
:1007F0000895689401C0E894AF93BF938D9116F06B
:10080000919102C0C1DF902D891718F011F488234F
:10081000A9F7BF91AF9108954869696969003000EF
:100820003100446174613D0020202049443D0000B6
:1008300030303031000030303130000053617665A7
:0E084000640049443D002020446174613D0085
:00000001FF
